{
  "_format": "hh-sol-artifact-1",
  "contractName": "FirstDapp",
  "sourceName": "contracts/MarketSentiment.sol",
  "abi": [
    {
      "anonymous": false,
      "inputs": [
        {
          "indexed": true,
          "internalType": "address",
          "name": "previousOwner",
          "type": "address"
        },
        {
          "indexed": true,
          "internalType": "address",
          "name": "newOwner",
          "type": "address"
        }
      ],
      "name": "OwnershipTransferred",
      "type": "event"
    },
    {
      "anonymous": false,
      "inputs": [
        {
          "indexed": false,
          "internalType": "string",
          "name": "str",
          "type": "string"
        }
      ],
      "name": "tokenCreated",
      "type": "event"
    },
    {
      "inputs": [
        {
          "internalType": "string",
          "name": "_str",
          "type": "string"
        }
      ],
      "name": "createTicket",
      "outputs": [],
      "stateMutability": "nonpayable",
      "type": "function"
    },
    {
      "inputs": [
        {
          "internalType": "string",
          "name": "_str",
          "type": "string"
        }
      ],
      "name": "getNegativeVotes",
      "outputs": [
        {
          "internalType": "uint256",
          "name": "",
          "type": "uint256"
        }
      ],
      "stateMutability": "view",
      "type": "function"
    },
    {
      "inputs": [
        {
          "internalType": "string",
          "name": "_str",
          "type": "string"
        }
      ],
      "name": "getPositiveVotes",
      "outputs": [
        {
          "internalType": "uint256",
          "name": "",
          "type": "uint256"
        }
      ],
      "stateMutability": "view",
      "type": "function"
    },
    {
      "inputs": [],
      "name": "getTickets",
      "outputs": [
        {
          "internalType": "string[]",
          "name": "",
          "type": "string[]"
        }
      ],
      "stateMutability": "view",
      "type": "function"
    },
    {
      "inputs": [],
      "name": "owner",
      "outputs": [
        {
          "internalType": "address",
          "name": "",
          "type": "address"
        }
      ],
      "stateMutability": "view",
      "type": "function"
    },
    {
      "inputs": [],
      "name": "renounceOwnership",
      "outputs": [],
      "stateMutability": "nonpayable",
      "type": "function"
    },
    {
      "inputs": [
        {
          "internalType": "string",
          "name": "",
          "type": "string"
        }
      ],
      "name": "tokenExist",
      "outputs": [
        {
          "internalType": "bool",
          "name": "",
          "type": "bool"
        }
      ],
      "stateMutability": "view",
      "type": "function"
    },
    {
      "inputs": [
        {
          "internalType": "address",
          "name": "newOwner",
          "type": "address"
        }
      ],
      "name": "transferOwnership",
      "outputs": [],
      "stateMutability": "nonpayable",
      "type": "function"
    },
    {
      "inputs": [
        {
          "internalType": "string",
          "name": "_str",
          "type": "string"
        }
      ],
      "name": "voteNegative",
      "outputs": [],
      "stateMutability": "nonpayable",
      "type": "function"
    },
    {
      "inputs": [
        {
          "internalType": "string",
          "name": "_str",
          "type": "string"
        }
      ],
      "name": "votePositive",
      "outputs": [],
      "stateMutability": "nonpayable",
      "type": "function"
    }
  ],
  "bytecode": "0x608060405234801561001057600080fd5b5061002d61002261003260201b60201c565b61003a60201b60201c565b6100fe565b600033905090565b60008060009054906101000a900473ffffffffffffffffffffffffffffffffffffffff169050816000806101000a81548173ffffffffffffffffffffffffffffffffffffffff021916908373ffffffffffffffffffffffffffffffffffffffff1602179055508173ffffffffffffffffffffffffffffffffffffffff168173ffffffffffffffffffffffffffffffffffffffff167f8be0079c531659141344cd1fd0a4f28419497f9722a3daafe3b4186f6b6457e060405160405180910390a35050565b6113948061010d6000396000f3fe608060405234801561001057600080fd5b506004361061009e5760003560e01c8063715018a611610066578063715018a6146101595780638da5cb5b14610163578063a8ba88a714610181578063f017d4e91461019d578063f2fde38b146101cd5761009e565b8063023524e4146100a35780631646983a146100d35780633525077a146101035780634ed026221461011f5780636897082f1461013d575b600080fd5b6100bd60048036038101906100b89190610abd565b6101e9565b6040516100ca9190610b1f565b60405180910390f35b6100ed60048036038101906100e89190610abd565b610214565b6040516100fa9190610b55565b60405180910390f35b61011d60048036038101906101189190610abd565b61024a565b005b6101276103a7565b6040516101349190610cb1565b60405180910390f35b61015760048036038101906101529190610abd565b610480565b005b6101616105d1565b005b61016b6105e5565b6040516101789190610d14565b60405180910390f35b61019b60048036038101906101969190610abd565b61060e565b005b6101b760048036038101906101b29190610abd565b61076b565b6040516101c49190610b1f565b60405180910390f35b6101e760048036038101906101e29190610d5b565b610796565b005b60006001826040516101fb9190610dc4565b9081526020016040518091039020600201549050919050565b6002818051602081018201805184825260208301602085012081835280955050505050506000915054906101000a900460ff1681565b60018160405161025a9190610dc4565b908152602001604051809103902060030160003373ffffffffffffffffffffffffffffffffffffffff1673ffffffffffffffffffffffffffffffffffffffff16815260200190815260200160002060009054906101000a900460ff16156102f6576040517f08c379a00000000000000000000000000000000000000000000000000000000081526004016102ed90610e38565b60405180910390fd5b600180826040516103079190610dc4565b908152602001604051809103902060010160008282546103279190610e87565b925050819055506001808260405161033f9190610dc4565b908152602001604051809103902060030160003373ffffffffffffffffffffffffffffffffffffffff1673ffffffffffffffffffffffffffffffffffffffff16815260200190815260200160002060006101000a81548160ff02191690831515021790555050565b60606003805480602002602001604051908101604052809291908181526020016000905b828210156104775783829060005260206000200180546103ea90610eea565b80601f016020809104026020016040519081016040528092919081815260200182805461041690610eea565b80156104635780601f1061043857610100808354040283529160200191610463565b820191906000526020600020905b81548152906001019060200180831161044657829003601f168201915b5050505050815260200190600101906103cb565b50505050905090565b610488610819565b6002816040516104989190610dc4565b908152602001604051809103902060009054906101000a900460ff16156104f4576040517f08c379a00000000000000000000000000000000000000000000000000000000081526004016104eb90610f67565b60405180910390fd5b60016002826040516105069190610dc4565b908152602001604051809103902060006101000a81548160ff021916908315150217905550600060018260405161053d9190610dc4565b9081526020016040518091039020905060008160010181905550600081600201819055506003829080600181540180825580915050600190039060005260206000200160009091909190915090816105959190611133565b507f4c079c41255c4abf9643e4ea238665321f8787721f602f81c119676fbfcb3824826040516105c5919061123e565b60405180910390a15050565b6105d9610819565b6105e36000610897565b565b60008060009054906101000a900473ffffffffffffffffffffffffffffffffffffffff16905090565b60018160405161061e9190610dc4565b908152602001604051809103902060030160003373ffffffffffffffffffffffffffffffffffffffff1673ffffffffffffffffffffffffffffffffffffffff16815260200190815260200160002060009054906101000a900460ff16156106ba576040517f08c379a00000000000000000000000000000000000000000000000000000000081526004016106b190610e38565b60405180910390fd5b600180826040516106cb9190610dc4565b908152602001604051809103902060020160008282546106eb9190610e87565b92505081905550600180826040516107039190610dc4565b908152602001604051809103902060030160003373ffffffffffffffffffffffffffffffffffffffff1673ffffffffffffffffffffffffffffffffffffffff16815260200190815260200160002060006101000a81548160ff02191690831515021790555050565b600060018260405161077d9190610dc4565b9081526020016040518091039020600101549050919050565b61079e610819565b600073ffffffffffffffffffffffffffffffffffffffff168173ffffffffffffffffffffffffffffffffffffffff160361080d576040517f08c379a0000000000000000000000000000000000000000000000000000000008152600401610804906112d2565b60405180910390fd5b61081681610897565b50565b61082161095b565b73ffffffffffffffffffffffffffffffffffffffff1661083f6105e5565b73ffffffffffffffffffffffffffffffffffffffff1614610895576040517f08c379a000000000000000000000000000000000000000000000000000000000815260040161088c9061133e565b60405180910390fd5b565b60008060009054906101000a900473ffffffffffffffffffffffffffffffffffffffff169050816000806101000a81548173ffffffffffffffffffffffffffffffffffffffff021916908373ffffffffffffffffffffffffffffffffffffffff1602179055508173ffffffffffffffffffffffffffffffffffffffff168173ffffffffffffffffffffffffffffffffffffffff167f8be0079c531659141344cd1fd0a4f28419497f9722a3daafe3b4186f6b6457e060405160405180910390a35050565b600033905090565b6000604051905090565b600080fd5b600080fd5b600080fd5b600080fd5b6000601f19601f8301169050919050565b7f4e487b7100000000000000000000000000000000000000000000000000000000600052604160045260246000fd5b6109ca82610981565b810181811067ffffffffffffffff821117156109e9576109e8610992565b5b80604052505050565b60006109fc610963565b9050610a0882826109c1565b919050565b600067ffffffffffffffff821115610a2857610a27610992565b5b610a3182610981565b9050602081019050919050565b82818337600083830152505050565b6000610a60610a5b84610a0d565b6109f2565b905082815260208101848484011115610a7c57610a7b61097c565b5b610a87848285610a3e565b509392505050565b600082601f830112610aa457610aa3610977565b5b8135610ab4848260208601610a4d565b91505092915050565b600060208284031215610ad357610ad261096d565b5b600082013567ffffffffffffffff811115610af157610af0610972565b5b610afd84828501610a8f565b91505092915050565b6000819050919050565b610b1981610b06565b82525050565b6000602082019050610b346000830184610b10565b92915050565b60008115159050919050565b610b4f81610b3a565b82525050565b6000602082019050610b6a6000830184610b46565b92915050565b600081519050919050565b600082825260208201905092915050565b6000819050602082019050919050565b600081519050919050565b600082825260208201905092915050565b60005b83811015610bd6578082015181840152602081019050610bbb565b60008484015250505050565b6000610bed82610b9c565b610bf78185610ba7565b9350610c07818560208601610bb8565b610c1081610981565b840191505092915050565b6000610c278383610be2565b905092915050565b6000602082019050919050565b6000610c4782610b70565b610c518185610b7b565b935083602082028501610c6385610b8c565b8060005b85811015610c9f5784840389528151610c808582610c1b565b9450610c8b83610c2f565b925060208a01995050600181019050610c67565b50829750879550505050505092915050565b60006020820190508181036000830152610ccb8184610c3c565b905092915050565b600073ffffffffffffffffffffffffffffffffffffffff82169050919050565b6000610cfe82610cd3565b9050919050565b610d0e81610cf3565b82525050565b6000602082019050610d296000830184610d05565b92915050565b610d3881610cf3565b8114610d4357600080fd5b50565b600081359050610d5581610d2f565b92915050565b600060208284031215610d7157610d7061096d565b5b6000610d7f84828501610d46565b91505092915050565b600081905092915050565b6000610d9e82610b9c565b610da88185610d88565b9350610db8818560208601610bb8565b80840191505092915050565b6000610dd08284610d93565b915081905092915050565b600082825260208201905092915050565b7f5468697320616464726573732068617320616c726561647920766f7465640000600082015250565b6000610e22601e83610ddb565b9150610e2d82610dec565b602082019050919050565b60006020820190508181036000830152610e5181610e15565b9050919050565b7f4e487b7100000000000000000000000000000000000000000000000000000000600052601160045260246000fd5b6000610e9282610b06565b9150610e9d83610b06565b9250828201905080821115610eb557610eb4610e58565b5b92915050565b7f4e487b7100000000000000000000000000000000000000000000000000000000600052602260045260246000fd5b60006002820490506001821680610f0257607f821691505b602082108103610f1557610f14610ebb565b5b50919050565b7f5469636b657420616c7265616479206578697374000000000000000000000000600082015250565b6000610f51601483610ddb565b9150610f5c82610f1b565b602082019050919050565b60006020820190508181036000830152610f8081610f44565b9050919050565b60008190508160005260206000209050919050565b60006020601f8301049050919050565b600082821b905092915050565b600060088302610fe97fffffffffffffffffffffffffffffffffffffffffffffffffffffffffffffffff82610fac565b610ff38683610fac565b95508019841693508086168417925050509392505050565b6000819050919050565b600061103061102b61102684610b06565b61100b565b610b06565b9050919050565b6000819050919050565b61104a83611015565b61105e61105682611037565b848454610fb9565b825550505050565b600090565b611073611066565b61107e818484611041565b505050565b5b818110156110a25761109760008261106b565b600181019050611084565b5050565b601f8211156110e7576110b881610f87565b6110c184610f9c565b810160208510156110d0578190505b6110e46110dc85610f9c565b830182611083565b50505b505050565b600082821c905092915050565b600061110a600019846008026110ec565b1980831691505092915050565b600061112383836110f9565b9150826002028217905092915050565b61113c82610b9c565b67ffffffffffffffff81111561115557611154610992565b5b61115f8254610eea565b61116a8282856110a6565b600060209050601f83116001811461119d576000841561118b578287015190505b6111958582611117565b8655506111fd565b601f1984166111ab86610f87565b60005b828110156111d3578489015182556001820191506020850194506020810190506111ae565b868310156111f057848901516111ec601f8916826110f9565b8355505b6001600288020188555050505b505050505050565b600061121082610b9c565b61121a8185610ddb565b935061122a818560208601610bb8565b61123381610981565b840191505092915050565b600060208201905081810360008301526112588184611205565b905092915050565b7f4f776e61626c653a206e6577206f776e657220697320746865207a65726f206160008201527f6464726573730000000000000000000000000000000000000000000000000000602082015250565b60006112bc602683610ddb565b91506112c782611260565b604082019050919050565b600060208201905081810360008301526112eb816112af565b9050919050565b7f4f776e61626c653a2063616c6c6572206973206e6f7420746865206f776e6572600082015250565b6000611328602083610ddb565b9150611333826112f2565b602082019050919050565b600060208201905081810360008301526113578161131b565b905091905056fea26469706673582212201f99aa509a0b7bc85f203f13715990e94e5fcba1aa412d4e38947c6b1d24e15a64736f6c63430008110033",
  "linkReferences": {},
  "deployedLinkReferences": {}
}