{
  "_format": "hh-sol-artifact-1",
  "contractName": "EwolCampaignRegistry",
  "sourceName": "contracts/EwolCampaignRegistry.sol",
  "abi": [
    {
      "inputs": [],
      "stateMutability": "nonpayable",
      "type": "constructor"
    },
    {
      "anonymous": false,
      "inputs": [
        {
          "indexed": false,
          "internalType": "uint256",
          "name": "_campaignId",
          "type": "uint256"
        },
        {
          "indexed": false,
          "internalType": "address",
          "name": "_campaignAddress",
          "type": "address"
        }
      ],
      "name": "CampaignLaunched",
      "type": "event"
    },
    {
      "anonymous": false,
      "inputs": [
        {
          "indexed": true,
          "internalType": "address",
          "name": "previousOwner",
          "type": "address"
        },
        {
          "indexed": true,
          "internalType": "address",
          "name": "newOwner",
          "type": "address"
        }
      ],
      "name": "OwnershipTransferred",
      "type": "event"
    },
    {
      "inputs": [
        {
          "internalType": "string",
          "name": "_campaignName",
          "type": "string"
        },
        {
          "internalType": "uint16",
          "name": "_targetEwolers",
          "type": "uint16"
        },
        {
          "internalType": "uint256",
          "name": "_investmentPerEwoler",
          "type": "uint256"
        },
        {
          "internalType": "address",
          "name": "_currencyToken",
          "type": "address"
        },
        {
          "internalType": "uint8",
          "name": "_weeksOfBootcamp",
          "type": "uint8"
        },
        {
          "internalType": "uint256",
          "name": "_premintAmount",
          "type": "uint256"
        }
      ],
      "name": "launchCampaign",
      "outputs": [],
      "stateMutability": "nonpayable",
      "type": "function"
    },
    {
      "inputs": [
        {
          "internalType": "uint256",
          "name": "",
          "type": "uint256"
        }
      ],
      "name": "launchedCampaigns",
      "outputs": [
        {
          "internalType": "address",
          "name": "contractAddress",
          "type": "address"
        },
        {
          "internalType": "address",
          "name": "implementationAddress",
          "type": "address"
        },
        {
          "internalType": "uint256",
          "name": "timestamp",
          "type": "uint256"
        },
        {
          "internalType": "address",
          "name": "launcher",
          "type": "address"
        }
      ],
      "stateMutability": "view",
      "type": "function"
    },
    {
      "inputs": [],
      "name": "owner",
      "outputs": [
        {
          "internalType": "address",
          "name": "",
          "type": "address"
        }
      ],
      "stateMutability": "view",
      "type": "function"
    },
    {
      "inputs": [],
      "name": "prototypeAddress",
      "outputs": [
        {
          "internalType": "address",
          "name": "",
          "type": "address"
        }
      ],
      "stateMutability": "view",
      "type": "function"
    },
    {
      "inputs": [],
      "name": "renounceOwnership",
      "outputs": [],
      "stateMutability": "nonpayable",
      "type": "function"
    },
    {
      "inputs": [
        {
          "internalType": "address",
          "name": "newOwner",
          "type": "address"
        }
      ],
      "name": "transferOwnership",
      "outputs": [],
      "stateMutability": "nonpayable",
      "type": "function"
    },
    {
      "inputs": [
        {
          "internalType": "address",
          "name": "_implementation",
          "type": "address"
        }
      ],
      "name": "updateCampaignPrototype",
      "outputs": [],
      "stateMutability": "nonpayable",
      "type": "function"
    }
  ],
  "bytecode": "0x60806040523480156200001157600080fd5b5062000032620000266200012660201b60201c565b6200012e60201b60201c565b60006040516200004290620001f2565b604051809103906000f0801580156200005f573d6000803e3d6000fd5b5090508073ffffffffffffffffffffffffffffffffffffffff1663891362296000806000806000306040518763ffffffff1660e01b8152600401620000aa9695949392919062000364565b600060405180830381600087803b158015620000c557600080fd5b505af1158015620000da573d6000803e3d6000fd5b5050505080600160006101000a81548173ffffffffffffffffffffffffffffffffffffffff021916908373ffffffffffffffffffffffffffffffffffffffff16021790555050620003e6565b600033905090565b60008060009054906101000a900473ffffffffffffffffffffffffffffffffffffffff169050816000806101000a81548173ffffffffffffffffffffffffffffffffffffffff021916908373ffffffffffffffffffffffffffffffffffffffff1602179055508173ffffffffffffffffffffffffffffffffffffffff168173ffffffffffffffffffffffffffffffffffffffff167f8be0079c531659141344cd1fd0a4f28419497f9722a3daafe3b4186f6b6457e060405160405180910390a35050565b6147c6806200116a83390190565b600082825260208201905092915050565b50565b60006200022360008362000200565b9150620002308262000211565b600082019050919050565b6000819050919050565b600061ffff82169050919050565b6000819050919050565b60006200027e6200027862000272846200023b565b62000253565b62000245565b9050919050565b62000290816200025d565b82525050565b6000819050919050565b6000620002c1620002bb620002b5846200023b565b62000253565b62000296565b9050919050565b620002d381620002a0565b82525050565b600073ffffffffffffffffffffffffffffffffffffffff82169050919050565b60006200030682620002d9565b9050919050565b6200031881620002f9565b82525050565b600060ff82169050919050565b60006200034c6200034662000340846200023b565b62000253565b6200031e565b9050919050565b6200035e816200032b565b82525050565b600060e08201905081810360008301526200037f8162000214565b905062000390602083018962000285565b6200039f6040830188620002c8565b620003ae60608301876200030d565b620003bd608083018662000353565b620003cc60a0830185620002c8565b620003db60c08301846200030d565b979650505050505050565b610d7480620003f66000396000f3fe608060405234801561001057600080fd5b506004361061007d5760003560e01c80638da5cb5b1161005b5780638da5cb5b146100c6578063a9f425df146100e4578063de05094214610100578063f2fde38b146101335761007d565b80635344ba1a146100825780636197e1a2146100a0578063715018a6146100bc575b600080fd5b61008a61014f565b60405161009791906107fb565b60405180910390f35b6100ba60048036038101906100b5919061095a565b610175565b005b6100c461040a565b005b6100ce61041e565b6040516100db91906107fb565b60405180910390f35b6100fe60048036038101906100f99190610a09565b610447565b005b61011a60048036038101906101159190610a36565b610493565b60405161012a9493929190610a72565b60405180910390f35b61014d60048036038101906101489190610a09565b610533565b005b600160009054906101000a900473ffffffffffffffffffffffffffffffffffffffff1681565b61017d6105b6565b60006101aa600160009054906101000a900473ffffffffffffffffffffffffffffffffffffffff16610634565b90508073ffffffffffffffffffffffffffffffffffffffff16638913622989898989898989336040518963ffffffff1660e01b81526004016101f3989796959493929190610b33565b600060405180830381600087803b15801561020d57600080fd5b505af1158015610221573d6000803e3d6000fd5b50505050600060405180608001604052808373ffffffffffffffffffffffffffffffffffffffff168152602001600160009054906101000a900473ffffffffffffffffffffffffffffffffffffffff1673ffffffffffffffffffffffffffffffffffffffff1681526020014281526020013373ffffffffffffffffffffffffffffffffffffffff16815250905060006002805490509050600282908060018154018082558091505060019003906000526020600020906004020160009091909190915060008201518160000160006101000a81548173ffffffffffffffffffffffffffffffffffffffff021916908373ffffffffffffffffffffffffffffffffffffffff16021790555060208201518160010160006101000a81548173ffffffffffffffffffffffffffffffffffffffff021916908373ffffffffffffffffffffffffffffffffffffffff1602179055506040820151816002015560608201518160030160006101000a81548173ffffffffffffffffffffffffffffffffffffffff021916908373ffffffffffffffffffffffffffffffffffffffff16021790555050507feacb4966fbe81efea7782ff377c0b99fee42a01843785d3bc0c4dab27126d2b281846040516103f6929190610bab565b60405180910390a150505050505050505050565b6104126105b6565b61041c60006106ee565b565b60008060009054906101000a900473ffffffffffffffffffffffffffffffffffffffff16905090565b61044f6105b6565b80600160006101000a81548173ffffffffffffffffffffffffffffffffffffffff021916908373ffffffffffffffffffffffffffffffffffffffff16021790555050565b600281815481106104a357600080fd5b90600052602060002090600402016000915090508060000160009054906101000a900473ffffffffffffffffffffffffffffffffffffffff16908060010160009054906101000a900473ffffffffffffffffffffffffffffffffffffffff16908060020154908060030160009054906101000a900473ffffffffffffffffffffffffffffffffffffffff16905084565b61053b6105b6565b600073ffffffffffffffffffffffffffffffffffffffff168173ffffffffffffffffffffffffffffffffffffffff16036105aa576040517f08c379a00000000000000000000000000000000000000000000000000000000081526004016105a190610c46565b60405180910390fd5b6105b3816106ee565b50565b6105be6107b2565b73ffffffffffffffffffffffffffffffffffffffff166105dc61041e565b73ffffffffffffffffffffffffffffffffffffffff1614610632576040517f08c379a000000000000000000000000000000000000000000000000000000000815260040161062990610cb2565b60405180910390fd5b565b6000763d602d80600a3d3981f3363d3d373d3d3d363d730000008260601b60e81c176000526e5af43d82803e903d91602b57fd5bf38260781b17602052603760096000f09050600073ffffffffffffffffffffffffffffffffffffffff168173ffffffffffffffffffffffffffffffffffffffff16036106e9576040517f08c379a00000000000000000000000000000000000000000000000000000000081526004016106e090610d1e565b60405180910390fd5b919050565b60008060009054906101000a900473ffffffffffffffffffffffffffffffffffffffff169050816000806101000a81548173ffffffffffffffffffffffffffffffffffffffff021916908373ffffffffffffffffffffffffffffffffffffffff1602179055508173ffffffffffffffffffffffffffffffffffffffff168173ffffffffffffffffffffffffffffffffffffffff167f8be0079c531659141344cd1fd0a4f28419497f9722a3daafe3b4186f6b6457e060405160405180910390a35050565b600033905090565b600073ffffffffffffffffffffffffffffffffffffffff82169050919050565b60006107e5826107ba565b9050919050565b6107f5816107da565b82525050565b600060208201905061081060008301846107ec565b92915050565b600080fd5b600080fd5b600080fd5b600080fd5b600080fd5b60008083601f84011261084557610844610820565b5b8235905067ffffffffffffffff81111561086257610861610825565b5b60208301915083600182028301111561087e5761087d61082a565b5b9250929050565b600061ffff82169050919050565b61089c81610885565b81146108a757600080fd5b50565b6000813590506108b981610893565b92915050565b6000819050919050565b6108d2816108bf565b81146108dd57600080fd5b50565b6000813590506108ef816108c9565b92915050565b6108fe816107da565b811461090957600080fd5b50565b60008135905061091b816108f5565b92915050565b600060ff82169050919050565b61093781610921565b811461094257600080fd5b50565b6000813590506109548161092e565b92915050565b600080600080600080600060c0888a03121561097957610978610816565b5b600088013567ffffffffffffffff8111156109975761099661081b565b5b6109a38a828b0161082f565b975097505060206109b68a828b016108aa565b95505060406109c78a828b016108e0565b94505060606109d88a828b0161090c565b93505060806109e98a828b01610945565b92505060a06109fa8a828b016108e0565b91505092959891949750929550565b600060208284031215610a1f57610a1e610816565b5b6000610a2d8482850161090c565b91505092915050565b600060208284031215610a4c57610a4b610816565b5b6000610a5a848285016108e0565b91505092915050565b610a6c816108bf565b82525050565b6000608082019050610a8760008301876107ec565b610a9460208301866107ec565b610aa16040830185610a63565b610aae60608301846107ec565b95945050505050565b600082825260208201905092915050565b82818337600083830152505050565b6000601f19601f8301169050919050565b6000610af48385610ab7565b9350610b01838584610ac8565b610b0a83610ad7565b840190509392505050565b610b1e81610885565b82525050565b610b2d81610921565b82525050565b600060e0820190508181036000830152610b4e818a8c610ae8565b9050610b5d6020830189610b15565b610b6a6040830188610a63565b610b7760608301876107ec565b610b846080830186610b24565b610b9160a0830185610a63565b610b9e60c08301846107ec565b9998505050505050505050565b6000604082019050610bc06000830185610a63565b610bcd60208301846107ec565b9392505050565b7f4f776e61626c653a206e6577206f776e657220697320746865207a65726f206160008201527f6464726573730000000000000000000000000000000000000000000000000000602082015250565b6000610c30602683610ab7565b9150610c3b82610bd4565b604082019050919050565b60006020820190508181036000830152610c5f81610c23565b9050919050565b7f4f776e61626c653a2063616c6c6572206973206e6f7420746865206f776e6572600082015250565b6000610c9c602083610ab7565b9150610ca782610c66565b602082019050919050565b60006020820190508181036000830152610ccb81610c8f565b9050919050565b7f455243313136373a20637265617465206661696c656400000000000000000000600082015250565b6000610d08601683610ab7565b9150610d1382610cd2565b602082019050919050565b60006020820190508181036000830152610d3781610cfb565b905091905056fea2646970667358221220223e5571d8b02d984e6227ce1e607db28672509e41b6bb7cf63ea5167db004d564736f6c63430008110033608060405234801561001057600080fd5b506147a6806100206000396000f3fe608060405234801561001057600080fd5b506004361061027f5760003560e01c80636b2fa3741161015c578063aef1fa2c116100ce578063dd62ed3e11610087578063dd62ed3e146107c6578063dd88701d146107f6578063e3affda314610812578063f212281714610830578063f2fde38b14610860578063f755928d1461087c5761027f565b8063aef1fa2c14610706578063af27c43914610722578063af322ee31461073e578063be40e95e1461075a578063ced250ca14610778578063d9a67ef6146107965761027f565b80638e5d7021116101205780638e5d70211461061e57806395d89b411461064e578063a42ab5f51461066c578063a457c2d714610688578063a9059cbb146106b8578063aa0b6d75146106e85761027f565b80636b2fa3741461058c57806370a08231146105aa578063715018a6146105da57806389136229146105e45780638da5cb5b146106005761027f565b8063215510af116101f5578063334ab4cc116101b9578063334ab4cc146104b657806339509351146104d4578063496ec034146105045780634be05f26146105345780634f575191146105645780635216aeec1461056e5761027f565b8063215510af1461041257806323b872dd1461044257806326e9b984146104725780633073aa3e1461048e578063313ce567146104985761027f565b8063095ea7b311610247578063095ea7b31461032a5780630a4f0e771461035a57806314b011021461038a57806315ab277c146103a857806318160ddd146103c4578063190160f2146103e25761027f565b8063015cb0a514610284578063037a55de146102a057806306040618146102be57806306c003aa146102dc57806306fdde031461030c575b600080fd5b61029e60048036038101906102999190612d06565b610898565b005b6102a861089c565b6040516102b59190612d55565b60405180910390f35b6102c66108a2565b6040516102d39190612de7565b60405180910390f35b6102f660048036038101906102f19190612e02565b6108b5565b6040516103039190612d55565b60405180910390f35b6103146108cd565b6040516103219190612ebf565b60405180910390f35b610344600480360381019061033f9190612f3f565b61095f565b6040516103519190612f9a565b60405180910390f35b610374600480360381019061036f9190612e02565b610982565b6040516103819190612fc4565b60405180910390f35b6103926109b5565b60405161039f9190612ffb565b60405180910390f35b6103c260048036038101906103bd9190612e02565b6109c8565b005b6103cc610b88565b6040516103d99190612d55565b60405180910390f35b6103fc60048036038101906103f79190612e02565b610b92565b6040516104099190612d55565b60405180910390f35b61042c60048036038101906104279190612e02565b610bb0565b6040516104399190612d55565b60405180910390f35b61045c60048036038101906104579190613016565b610bc8565b6040516104699190612f9a565b60405180910390f35b61048c60048036038101906104879190612e02565b610bf7565b005b610496610e02565b005b6104a0610f1a565b6040516104ad9190612ffb565b60405180910390f35b6104be610f23565b6040516104cb9190612d55565b60405180910390f35b6104ee60048036038101906104e99190612f3f565b610f29565b6040516104fb9190612f9a565b60405180910390f35b61051e60048036038101906105199190612e02565b610f60565b60405161052b9190612fc4565b60405180910390f35b61054e60048036038101906105499190612e02565b610f93565b60405161055b9190612d55565b60405180910390f35b61056c610fab565b005b6105766110b3565b6040516105839190612d55565b60405180910390f35b6105946110b9565b6040516105a19190612fc4565b60405180910390f35b6105c460048036038101906105bf9190613069565b6110df565b6040516105d19190612d55565b60405180910390f35b6105e2611128565b005b6105fe60048036038101906105f99190613161565b61113c565b005b6106086113bb565b6040516106159190612fc4565b60405180910390f35b61063860048036038101906106339190612e02565b6113e5565b6040516106459190612d55565b60405180910390f35b6106566113fd565b6040516106639190612ebf565b60405180910390f35b61068660048036038101906106819190612e02565b61148f565b005b6106a2600480360381019061069d9190612f3f565b611543565b6040516106af9190612f9a565b60405180910390f35b6106d260048036038101906106cd9190612f3f565b6115ba565b6040516106df9190612f9a565b60405180910390f35b6106f06115dd565b6040516106fd9190612d55565b60405180910390f35b610720600480360381019061071b9190613223565b6115e3565b005b61073c60048036038101906107379190612f3f565b611807565b005b61075860048036038101906107539190613069565b611999565b005b61076261199c565b60405161076f9190612d55565b60405180910390f35b6107806119a2565b60405161078d9190613299565b60405180910390f35b6107b060048036038101906107ab9190612e02565b6119b6565b6040516107bd9190612d55565b60405180910390f35b6107e060048036038101906107db91906132b4565b611a0e565b6040516107ed9190612d55565b60405180910390f35b610810600480360381019061080b91906132f4565b611a95565b005b61081a611cae565b6040516108279190612d55565b60405180910390f35b61084a60048036038101906108459190612e02565b611cd7565b6040516108579190612d55565b60405180910390f35b61087a60048036038101906108759190613069565b611d2f565b005b61089660048036038101906108919190612e02565b611db2565b005b5050565b60a35481565b609960159054906101000a900460ff1681565b60a06020528060005260406000206000915090505481565b6060606880546108dc90613376565b80601f016020809104026020016040519081016040528092919081815260200182805461090890613376565b80156109555780601f1061092a57610100808354040283529160200191610955565b820191906000526020600020905b81548152906001019060200180831161093857829003601f168201915b5050505050905090565b60008061096a611e66565b9050610977818585611e6e565b600191505092915050565b609b6020528060005260406000206000915054906101000a900473ffffffffffffffffffffffffffffffffffffffff1681565b609960149054906101000a900460ff1681565b6109d0612037565b6002808111156109e3576109e2612d70565b5b609960159054906101000a900460ff166002811115610a0557610a04612d70565b5b03610a45576040517f08c379a0000000000000000000000000000000000000000000000000000000008152600401610a3c906133f3565b60405180910390fd5b600073ffffffffffffffffffffffffffffffffffffffff16609b600083815260200190815260200160002060009054906101000a900473ffffffffffffffffffffffffffffffffffffffff1673ffffffffffffffffffffffffffffffffffffffff1603610ae7576040517f08c379a0000000000000000000000000000000000000000000000000000000008152600401610ade9061345f565b60405180910390fd5b6000609b600083815260200190815260200160002060006101000a81548173ffffffffffffffffffffffffffffffffffffffff021916908373ffffffffffffffffffffffffffffffffffffffff1602179055506000609c60008381526020019081526020016000205490506000609c6000848152602001908152602001600020819055508060a16000828254610b7d91906134ae565b925050819055505050565b6000606754905090565b6000609760009054906101000a900461ffff1661ffff169050919050565b609d6020528060005260406000206000915090505481565b600080610bd3611e66565b9050610be08582856120b5565b610beb858585612141565b60019150509392505050565b610bff612037565b600280811115610c1257610c11612d70565b5b609960159054906101000a900460ff166002811115610c3457610c33612d70565b5b03610c74576040517f08c379a0000000000000000000000000000000000000000000000000000000008152600401610c6b906133f3565b60405180910390fd5b600073ffffffffffffffffffffffffffffffffffffffff16609e600083815260200190815260200160002060009054906101000a900473ffffffffffffffffffffffffffffffffffffffff1673ffffffffffffffffffffffffffffffffffffffff1603610d16576040517f08c379a0000000000000000000000000000000000000000000000000000000008152600401610d0d9061345f565b60405180910390fd5b6000609e600083815260200190815260200160002060009054906101000a900473ffffffffffffffffffffffffffffffffffffffff1690506000609e600084815260200190815260200160002060006101000a81548173ffffffffffffffffffffffffffffffffffffffff021916908373ffffffffffffffffffffffffffffffffffffffff1602179055506000609f60008481526020019081526020016000205490506000609f6000858152602001908152602001600020819055508060a16000828254610de491906134ae565b92505081905550610dfd82610df8846110df565b6123ba565b505050565b610e0a612037565b6000806002811115610e1f57610e1e612d70565b5b609960159054906101000a900460ff166002811115610e4157610e40612d70565b5b14610e81576040517f08c379a0000000000000000000000000000000000000000000000000000000008152600401610e7890613554565b60405180910390fd5b609960149054906101000a900460ff1660ff1660a154610ea19190613574565b609a541015610ee5576040517f08c379a0000000000000000000000000000000000000000000000000000000008152600401610edc90613628565b60405180910390fd5b6001609960156101000a81548160ff02191690836002811115610f0b57610f0a612d70565b5b02179055504260a28190555050565b60006012905090565b60985481565b600080610f34611e66565b9050610f55818585610f468589611a0e565b610f509190613648565b611e6e565b600191505092915050565b609e6020528060005260406000206000915054906101000a900473ffffffffffffffffffffffffffffffffffffffff1681565b609f6020528060005260406000206000915090505481565b610fb3612037565b6001806002811115610fc857610fc7612d70565b5b609960159054906101000a900460ff166002811115610fea57610fe9612d70565b5b1461102a576040517f08c379a000000000000000000000000000000000000000000000000000000000815260040161102190613554565b60405180910390fd5b609960149054906101000a900460ff1660ff16611045612589565b14611085576040517f08c379a000000000000000000000000000000000000000000000000000000000815260040161107c906136c8565b60405180910390fd5b6002609960156101000a81548160ff021916908360028111156110ab576110aa612d70565b5b021790555050565b609a5481565b609960009054906101000a900473ffffffffffffffffffffffffffffffffffffffff1681565b6000606560008373ffffffffffffffffffffffffffffffffffffffff1673ffffffffffffffffffffffffffffffffffffffff168152602001908152602001600020549050919050565b611130612037565b61113a600061262c565b565b60008060019054906101000a900460ff1615905080801561116d5750600160008054906101000a900460ff1660ff16105b8061119a575061117c306126f2565b1580156111995750600160008054906101000a900460ff1660ff16145b5b6111d9576040517f08c379a00000000000000000000000000000000000000000000000000000000081526004016111d09061375a565b60405180910390fd5b60016000806101000a81548160ff021916908360ff1602179055508015611216576001600060016101000a81548160ff0219169083151502179055505b61129989898080601f016020809104026020016040519081016040528093929190818152602001838380828437600081840152601f19601f820116905080830192505050505050506040518060400160405280600581526020017f6345574f4c000000000000000000000000000000000000000000000000000000815250612715565b86609760006101000a81548161ffff021916908361ffff1602179055508560988190555084609960006101000a81548173ffffffffffffffffffffffffffffffffffffffff021916908373ffffffffffffffffffffffffffffffffffffffff16021790555083609960146101000a81548160ff021916908360ff1602179055506113238284612772565b61132c8261262c565b6000609960156101000a81548160ff0219169083600281111561135257611351612d70565b5b021790555080156113b05760008060016101000a81548160ff0219169083151502179055507f7f26b83ff96e1f2b6a682f133852f6798a09c465da95921460cefb384740249860016040516113a791906137bf565b60405180910390a15b505050505050505050565b6000603360009054906101000a900473ffffffffffffffffffffffffffffffffffffffff16905090565b609c6020528060005260406000206000915090505481565b60606069805461140c90613376565b80601f016020809104026020016040519081016040528092919081815260200182805461143890613376565b80156114855780601f1061145a57610100808354040283529160200191611485565b820191906000526020600020905b81548152906001019060200180831161146857829003601f168201915b5050505050905090565b600061149a82611cd7565b905080609d600084815260200190815260200160002060008282546114bf9190613648565b925050819055508060a360008282546114d89190613648565b9250508190555061153f609960009054906101000a900473ffffffffffffffffffffffffffffffffffffffff16609b600085815260200190815260200160002060009054906101000a900473ffffffffffffffffffffffffffffffffffffffff16836128c9565b5050565b60008061154e611e66565b9050600061155c8286611a0e565b9050838110156115a1576040517f08c379a00000000000000000000000000000000000000000000000000000000081526004016115989061384c565b60405180910390fd5b6115ae8286868403611e6e565b60019250505092915050565b6000806115c5611e66565b90506115d2818585612141565b600191505092915050565b60a25481565b6115eb612037565b6000806002811115611600576115ff612d70565b5b609960159054906101000a900460ff16600281111561162257611621612d70565b5b14611662576040517f08c379a000000000000000000000000000000000000000000000000000000000815260040161165990613554565b60405180910390fd5b600073ffffffffffffffffffffffffffffffffffffffff168473ffffffffffffffffffffffffffffffffffffffff16036116d1576040517f08c379a00000000000000000000000000000000000000000000000000000000081526004016116c8906138b8565b60405180910390fd5b600073ffffffffffffffffffffffffffffffffffffffff16609e600087815260200190815260200160002060009054906101000a900473ffffffffffffffffffffffffffffffffffffffff1673ffffffffffffffffffffffffffffffffffffffff1614611773576040517f08c379a000000000000000000000000000000000000000000000000000000000815260040161176a90613924565b60405180910390fd5b83609e600087815260200190815260200160002060006101000a81548173ffffffffffffffffffffffffffffffffffffffff021916908373ffffffffffffffffffffffffffffffffffffffff16021790555082609f6000878152602001908152602001600020819055506117e78483612772565b8260a160008282546117f99190613648565b925050819055505050505050565b600080600281111561181c5761181b612d70565b5b609960159054906101000a900460ff16600281111561183e5761183d612d70565b5b1461187e576040517f08c379a000000000000000000000000000000000000000000000000000000000815260040161187590613554565b60405180910390fd5b8273ffffffffffffffffffffffffffffffffffffffff16609960009054906101000a900473ffffffffffffffffffffffffffffffffffffffff1673ffffffffffffffffffffffffffffffffffffffff161461190e576040517f08c379a000000000000000000000000000000000000000000000000000000000815260040161190590613990565b60405180910390fd5b609a54611919611cae565b61192391906134ae565b821115611965576040517f08c379a000000000000000000000000000000000000000000000000000000000815260040161195c906139fc565b60405180910390fd5b6119718333308561294f565b81609a60008282546119839190613648565b925050819055506119943383612772565b505050565b50565b60a15481565b609760009054906101000a900461ffff1681565b6000806119c1612589565b609f6000858152602001908152602001600020546119df9190613574565b9050600060a060008581526020019081526020016000205490508082611a0591906134ae565b92505050919050565b6000606660008473ffffffffffffffffffffffffffffffffffffffff1673ffffffffffffffffffffffffffffffffffffffff16815260200190815260200160002060008373ffffffffffffffffffffffffffffffffffffffff1673ffffffffffffffffffffffffffffffffffffffff16815260200190815260200160002054905092915050565b611a9d612037565b6000806002811115611ab257611ab1612d70565b5b609960159054906101000a900460ff166002811115611ad457611ad3612d70565b5b14611b14576040517f08c379a0000000000000000000000000000000000000000000000000000000008152600401611b0b90613554565b60405180910390fd5b600073ffffffffffffffffffffffffffffffffffffffff168373ffffffffffffffffffffffffffffffffffffffff1603611b83576040517f08c379a0000000000000000000000000000000000000000000000000000000008152600401611b7a90613a68565b60405180910390fd5b600073ffffffffffffffffffffffffffffffffffffffff16609b600086815260200190815260200160002060009054906101000a900473ffffffffffffffffffffffffffffffffffffffff1673ffffffffffffffffffffffffffffffffffffffff1614611c25576040517f08c379a0000000000000000000000000000000000000000000000000000000008152600401611c1c90613ad4565b60405180910390fd5b82609b600086815260200190815260200160002060006101000a81548173ffffffffffffffffffffffffffffffffffffffff021916908373ffffffffffffffffffffffffffffffffffffffff16021790555081609c6000868152602001908152602001600020819055508160a16000828254611ca19190613648565b9250508190555050505050565b6000609854609760009054906101000a900461ffff1661ffff16611cd29190613574565b905090565b600080611ce2612589565b609c600085815260200190815260200160002054611d009190613574565b90506000609d60008581526020019081526020016000205490508082611d2691906134ae565b92505050919050565b611d37612037565b600073ffffffffffffffffffffffffffffffffffffffff168173ffffffffffffffffffffffffffffffffffffffff1603611da6576040517f08c379a0000000000000000000000000000000000000000000000000000000008152600401611d9d90613b66565b60405180910390fd5b611daf8161262c565b50565b6000611dbd826119b6565b90508060a060008481526020019081526020016000206000828254611de29190613648565b925050819055508060a36000828254611dfb9190613648565b92505081905550611e62609960009054906101000a900473ffffffffffffffffffffffffffffffffffffffff16609e600085815260200190815260200160002060009054906101000a900473ffffffffffffffffffffffffffffffffffffffff16836128c9565b5050565b600033905090565b600073ffffffffffffffffffffffffffffffffffffffff168373ffffffffffffffffffffffffffffffffffffffff1603611edd576040517f08c379a0000000000000000000000000000000000000000000000000000000008152600401611ed490613bf8565b60405180910390fd5b600073ffffffffffffffffffffffffffffffffffffffff168273ffffffffffffffffffffffffffffffffffffffff1603611f4c576040517f08c379a0000000000000000000000000000000000000000000000000000000008152600401611f4390613c8a565b60405180910390fd5b80606660008573ffffffffffffffffffffffffffffffffffffffff1673ffffffffffffffffffffffffffffffffffffffff16815260200190815260200160002060008473ffffffffffffffffffffffffffffffffffffffff1673ffffffffffffffffffffffffffffffffffffffff168152602001908152602001600020819055508173ffffffffffffffffffffffffffffffffffffffff168373ffffffffffffffffffffffffffffffffffffffff167f8c5be1e5ebec7d5bd14f71427d1e84f3dd0314c0f7b2291e5b200ac8c7c3b9258360405161202a9190612d55565b60405180910390a3505050565b61203f611e66565b73ffffffffffffffffffffffffffffffffffffffff1661205d6113bb565b73ffffffffffffffffffffffffffffffffffffffff16146120b3576040517f08c379a00000000000000000000000000000000000000000000000000000000081526004016120aa90613cf6565b60405180910390fd5b565b60006120c18484611a0e565b90507fffffffffffffffffffffffffffffffffffffffffffffffffffffffffffffffff811461213b578181101561212d576040517f08c379a000000000000000000000000000000000000000000000000000000000815260040161212490613d62565b60405180910390fd5b61213a8484848403611e6e565b5b50505050565b600073ffffffffffffffffffffffffffffffffffffffff168373ffffffffffffffffffffffffffffffffffffffff16036121b0576040517f08c379a00000000000000000000000000000000000000000000000000000000081526004016121a790613df4565b60405180910390fd5b600073ffffffffffffffffffffffffffffffffffffffff168273ffffffffffffffffffffffffffffffffffffffff160361221f576040517f08c379a000000000000000000000000000000000000000000000000000000000815260040161221690613e86565b60405180910390fd5b61222a8383836129d8565b6000606560008573ffffffffffffffffffffffffffffffffffffffff1673ffffffffffffffffffffffffffffffffffffffff168152602001908152602001600020549050818110156122b1576040517f08c379a00000000000000000000000000000000000000000000000000000000081526004016122a890613f18565b60405180910390fd5b818103606560008673ffffffffffffffffffffffffffffffffffffffff1673ffffffffffffffffffffffffffffffffffffffff1681526020019081526020016000208190555081606560008573ffffffffffffffffffffffffffffffffffffffff1673ffffffffffffffffffffffffffffffffffffffff168152602001908152602001600020600082825401925050819055508273ffffffffffffffffffffffffffffffffffffffff168473ffffffffffffffffffffffffffffffffffffffff167fddf252ad1be2c89b69c2b068fc378daa952ba7f163c4a11628f55a4df523b3ef846040516123a19190612d55565b60405180910390a36123b48484846129dd565b50505050565b600073ffffffffffffffffffffffffffffffffffffffff168273ffffffffffffffffffffffffffffffffffffffff1603612429576040517f08c379a000000000000000000000000000000000000000000000000000000000815260040161242090613faa565b60405180910390fd5b612435826000836129d8565b6000606560008473ffffffffffffffffffffffffffffffffffffffff1673ffffffffffffffffffffffffffffffffffffffff168152602001908152602001600020549050818110156124bc576040517f08c379a00000000000000000000000000000000000000000000000000000000081526004016124b39061403c565b60405180910390fd5b818103606560008573ffffffffffffffffffffffffffffffffffffffff1673ffffffffffffffffffffffffffffffffffffffff1681526020019081526020016000208190555081606760008282540392505081905550600073ffffffffffffffffffffffffffffffffffffffff168373ffffffffffffffffffffffffffffffffffffffff167fddf252ad1be2c89b69c2b068fc378daa952ba7f163c4a11628f55a4df523b3ef846040516125709190612d55565b60405180910390a3612584836000846129dd565b505050565b60008060a254116125cf576040517f08c379a00000000000000000000000000000000000000000000000000000000081526004016125c6906140a8565b60405180910390fd5b600062093a8060a254426125e391906134ae565b6125ed91906140f7565b9050609960149054906101000a900460ff1660ff1681111561262457609960149054906101000a900460ff1660ff16915050612629565b809150505b90565b6000603360009054906101000a900473ffffffffffffffffffffffffffffffffffffffff16905081603360006101000a81548173ffffffffffffffffffffffffffffffffffffffff021916908373ffffffffffffffffffffffffffffffffffffffff1602179055508173ffffffffffffffffffffffffffffffffffffffff168173ffffffffffffffffffffffffffffffffffffffff167f8be0079c531659141344cd1fd0a4f28419497f9722a3daafe3b4186f6b6457e060405160405180910390a35050565b6000808273ffffffffffffffffffffffffffffffffffffffff163b119050919050565b600060019054906101000a900460ff16612764576040517f08c379a000000000000000000000000000000000000000000000000000000000815260040161275b9061419a565b60405180910390fd5b61276e82826129e2565b5050565b600073ffffffffffffffffffffffffffffffffffffffff168273ffffffffffffffffffffffffffffffffffffffff16036127e1576040517f08c379a00000000000000000000000000000000000000000000000000000000081526004016127d890614206565b60405180910390fd5b6127ed600083836129d8565b80606760008282546127ff9190613648565b9250508190555080606560008473ffffffffffffffffffffffffffffffffffffffff1673ffffffffffffffffffffffffffffffffffffffff168152602001908152602001600020600082825401925050819055508173ffffffffffffffffffffffffffffffffffffffff16600073ffffffffffffffffffffffffffffffffffffffff167fddf252ad1be2c89b69c2b068fc378daa952ba7f163c4a11628f55a4df523b3ef836040516128b19190612d55565b60405180910390a36128c5600083836129dd565b5050565b61294a8363a9059cbb60e01b84846040516024016128e8929190614226565b604051602081830303815290604052907bffffffffffffffffffffffffffffffffffffffffffffffffffffffff19166020820180517bffffffffffffffffffffffffffffffffffffffffffffffffffffffff8381831617835250505050612a55565b505050565b6129d2846323b872dd60e01b8585856040516024016129709392919061424f565b604051602081830303815290604052907bffffffffffffffffffffffffffffffffffffffffffffffffffffffff19166020820180517bffffffffffffffffffffffffffffffffffffffffffffffffffffffff8381831617835250505050612a55565b50505050565b505050565b505050565b600060019054906101000a900460ff16612a31576040517f08c379a0000000000000000000000000000000000000000000000000000000008152600401612a289061419a565b60405180910390fd5b8160689081612a409190614457565b508060699081612a509190614457565b505050565b6000612ab7826040518060400160405280602081526020017f5361666545524332303a206c6f772d6c6576656c2063616c6c206661696c65648152508573ffffffffffffffffffffffffffffffffffffffff16612b1c9092919063ffffffff16565b9050600081511115612b175780806020019051810190612ad79190614555565b612b16576040517f08c379a0000000000000000000000000000000000000000000000000000000008152600401612b0d906145f4565b60405180910390fd5b5b505050565b6060612b2b8484600085612b34565b90509392505050565b606082471015612b79576040517f08c379a0000000000000000000000000000000000000000000000000000000008152600401612b7090614686565b60405180910390fd5b6000808673ffffffffffffffffffffffffffffffffffffffff168587604051612ba291906146ed565b60006040518083038185875af1925050503d8060008114612bdf576040519150601f19603f3d011682016040523d82523d6000602084013e612be4565b606091505b5091509150612bf587838387612c01565b92505050949350505050565b60608315612c63576000835103612c5b57612c1b856126f2565b612c5a576040517f08c379a0000000000000000000000000000000000000000000000000000000008152600401612c5190614750565b60405180910390fd5b5b829050612c6e565b612c6d8383612c76565b5b949350505050565b600082511115612c895781518083602001fd5b806040517f08c379a0000000000000000000000000000000000000000000000000000000008152600401612cbd9190612ebf565b60405180910390fd5b600080fd5b600080fd5b6000819050919050565b612ce381612cd0565b8114612cee57600080fd5b50565b600081359050612d0081612cda565b92915050565b60008060408385031215612d1d57612d1c612cc6565b5b6000612d2b85828601612cf1565b9250506020612d3c85828601612cf1565b9150509250929050565b612d4f81612cd0565b82525050565b6000602082019050612d6a6000830184612d46565b92915050565b7f4e487b7100000000000000000000000000000000000000000000000000000000600052602160045260246000fd5b60038110612db057612daf612d70565b5b50565b6000819050612dc182612d9f565b919050565b6000612dd182612db3565b9050919050565b612de181612dc6565b82525050565b6000602082019050612dfc6000830184612dd8565b92915050565b600060208284031215612e1857612e17612cc6565b5b6000612e2684828501612cf1565b91505092915050565b600081519050919050565b600082825260208201905092915050565b60005b83811015612e69578082015181840152602081019050612e4e565b60008484015250505050565b6000601f19601f8301169050919050565b6000612e9182612e2f565b612e9b8185612e3a565b9350612eab818560208601612e4b565b612eb481612e75565b840191505092915050565b60006020820190508181036000830152612ed98184612e86565b905092915050565b600073ffffffffffffffffffffffffffffffffffffffff82169050919050565b6000612f0c82612ee1565b9050919050565b612f1c81612f01565b8114612f2757600080fd5b50565b600081359050612f3981612f13565b92915050565b60008060408385031215612f5657612f55612cc6565b5b6000612f6485828601612f2a565b9250506020612f7585828601612cf1565b9150509250929050565b60008115159050919050565b612f9481612f7f565b82525050565b6000602082019050612faf6000830184612f8b565b92915050565b612fbe81612f01565b82525050565b6000602082019050612fd96000830184612fb5565b92915050565b600060ff82169050919050565b612ff581612fdf565b82525050565b60006020820190506130106000830184612fec565b92915050565b60008060006060848603121561302f5761302e612cc6565b5b600061303d86828701612f2a565b935050602061304e86828701612f2a565b925050604061305f86828701612cf1565b9150509250925092565b60006020828403121561307f5761307e612cc6565b5b600061308d84828501612f2a565b91505092915050565b600080fd5b600080fd5b600080fd5b60008083601f8401126130bb576130ba613096565b5b8235905067ffffffffffffffff8111156130d8576130d761309b565b5b6020830191508360018202830111156130f4576130f36130a0565b5b9250929050565b600061ffff82169050919050565b613112816130fb565b811461311d57600080fd5b50565b60008135905061312f81613109565b92915050565b61313e81612fdf565b811461314957600080fd5b50565b60008135905061315b81613135565b92915050565b60008060008060008060008060e0898b03121561318157613180612cc6565b5b600089013567ffffffffffffffff81111561319f5761319e612ccb565b5b6131ab8b828c016130a5565b985098505060206131be8b828c01613120565b96505060406131cf8b828c01612cf1565b95505060606131e08b828c01612f2a565b94505060806131f18b828c0161314c565b93505060a06132028b828c01612cf1565b92505060c06132138b828c01612f2a565b9150509295985092959890939650565b6000806000806080858703121561323d5761323c612cc6565b5b600061324b87828801612cf1565b945050602061325c87828801612f2a565b935050604061326d87828801612cf1565b925050606061327e87828801612cf1565b91505092959194509250565b613293816130fb565b82525050565b60006020820190506132ae600083018461328a565b92915050565b600080604083850312156132cb576132ca612cc6565b5b60006132d985828601612f2a565b92505060206132ea85828601612f2a565b9150509250929050565b60008060006060848603121561330d5761330c612cc6565b5b600061331b86828701612cf1565b935050602061332c86828701612f2a565b925050604061333d86828701612cf1565b9150509250925092565b7f4e487b7100000000000000000000000000000000000000000000000000000000600052602260045260246000fd5b6000600282049050600182168061338e57607f821691505b6020821081036133a1576133a0613347565b5b50919050565b7f426f6f7463616d7020616c726561647920636f6e636c75646564000000000000600082015250565b60006133dd601a83612e3a565b91506133e8826133a7565b602082019050919050565b6000602082019050818103600083015261340c816133d0565b9050919050565b7f5374616666657220776173206e6576657220656e726f6c6c6564000000000000600082015250565b6000613449601a83612e3a565b915061345482613413565b602082019050919050565b600060208201905081810360008301526134788161343c565b9050919050565b7f4e487b7100000000000000000000000000000000000000000000000000000000600052601160045260246000fd5b60006134b982612cd0565b91506134c483612cd0565b92508282039050818111156134dc576134db61347f565b5b92915050565b7f4d6574686f64206e6f7420617661696c61626c6520666f72207468697320706560008201527f72696f6400000000000000000000000000000000000000000000000000000000602082015250565b600061353e602483612e3a565b9150613549826134e2565b604082019050919050565b6000602082019050818103600083015261356d81613531565b9050919050565b600061357f82612cd0565b915061358a83612cd0565b925082820261359881612cd0565b915082820484148315176135af576135ae61347f565b5b5092915050565b7f4e6f7420656e6f7567682066756e647320746f20737461727420426f6f74636160008201527f6d70000000000000000000000000000000000000000000000000000000000000602082015250565b6000613612602283612e3a565b915061361d826135b6565b604082019050919050565b6000602082019050818103600083015261364181613605565b9050919050565b600061365382612cd0565b915061365e83612cd0565b92508282019050808211156136765761367561347f565b5b92915050565b7f426f6f7463616d70206861736e2774206265656e20636f6d706c657465640000600082015250565b60006136b2601e83612e3a565b91506136bd8261367c565b602082019050919050565b600060208201905081810360008301526136e1816136a5565b9050919050565b7f496e697469616c697a61626c653a20636f6e747261637420697320616c72656160008201527f647920696e697469616c697a6564000000000000000000000000000000000000602082015250565b6000613744602e83612e3a565b915061374f826136e8565b604082019050919050565b6000602082019050818103600083015261377381613737565b9050919050565b6000819050919050565b6000819050919050565b60006137a96137a461379f8461377a565b613784565b612fdf565b9050919050565b6137b98161378e565b82525050565b60006020820190506137d460008301846137b0565b92915050565b7f45524332303a2064656372656173656420616c6c6f77616e63652062656c6f7760008201527f207a65726f000000000000000000000000000000000000000000000000000000602082015250565b6000613836602583612e3a565b9150613841826137da565b604082019050919050565b6000602082019050818103600083015261386581613829565b9050919050565b7f5374616666657220616464726573732063616e2774206265207a65726f000000600082015250565b60006138a2601d83612e3a565b91506138ad8261386c565b602082019050919050565b600060208201905081810360008301526138d181613895565b9050919050565b7f5374616666657220616c726561647920656e726f6c6c65640000000000000000600082015250565b600061390e601883612e3a565b9150613919826138d8565b602082019050919050565b6000602082019050818103600083015261393d81613901565b9050919050565b7f4465706f73697420746f6b656e206e6f7420737570706f727465640000000000600082015250565b600061397a601b83612e3a565b915061398582613944565b602082019050919050565b600060208201905081810360008301526139a98161396d565b9050919050565b7f4465706f736974206578636565647320696e766573746d656e74206361700000600082015250565b60006139e6601e83612e3a565b91506139f1826139b0565b602082019050919050565b60006020820190508181036000830152613a15816139d9565b9050919050565b7f45776f6c657220616464726573732063616e2774206265207a65726f00000000600082015250565b6000613a52601c83612e3a565b9150613a5d82613a1c565b602082019050919050565b60006020820190508181036000830152613a8181613a45565b9050919050565b7f45776f6c657220616c726561647920656e726f6c6c6564000000000000000000600082015250565b6000613abe601783612e3a565b9150613ac982613a88565b602082019050919050565b60006020820190508181036000830152613aed81613ab1565b9050919050565b7f4f776e61626c653a206e6577206f776e657220697320746865207a65726f206160008201527f6464726573730000000000000000000000000000000000000000000000000000602082015250565b6000613b50602683612e3a565b9150613b5b82613af4565b604082019050919050565b60006020820190508181036000830152613b7f81613b43565b9050919050565b7f45524332303a20617070726f76652066726f6d20746865207a65726f2061646460008201527f7265737300000000000000000000000000000000000000000000000000000000602082015250565b6000613be2602483612e3a565b9150613bed82613b86565b604082019050919050565b60006020820190508181036000830152613c1181613bd5565b9050919050565b7f45524332303a20617070726f766520746f20746865207a65726f20616464726560008201527f7373000000000000000000000000000000000000000000000000000000000000602082015250565b6000613c74602283612e3a565b9150613c7f82613c18565b604082019050919050565b60006020820190508181036000830152613ca381613c67565b9050919050565b7f4f776e61626c653a2063616c6c6572206973206e6f7420746865206f776e6572600082015250565b6000613ce0602083612e3a565b9150613ceb82613caa565b602082019050919050565b60006020820190508181036000830152613d0f81613cd3565b9050919050565b7f45524332303a20696e73756666696369656e7420616c6c6f77616e6365000000600082015250565b6000613d4c601d83612e3a565b9150613d5782613d16565b602082019050919050565b60006020820190508181036000830152613d7b81613d3f565b9050919050565b7f45524332303a207472616e736665722066726f6d20746865207a65726f20616460008201527f6472657373000000000000000000000000000000000000000000000000000000602082015250565b6000613dde602583612e3a565b9150613de982613d82565b604082019050919050565b60006020820190508181036000830152613e0d81613dd1565b9050919050565b7f45524332303a207472616e7366657220746f20746865207a65726f206164647260008201527f6573730000000000000000000000000000000000000000000000000000000000602082015250565b6000613e70602383612e3a565b9150613e7b82613e14565b604082019050919050565b60006020820190508181036000830152613e9f81613e63565b9050919050565b7f45524332303a207472616e7366657220616d6f756e742065786365656473206260008201527f616c616e63650000000000000000000000000000000000000000000000000000602082015250565b6000613f02602683612e3a565b9150613f0d82613ea6565b604082019050919050565b60006020820190508181036000830152613f3181613ef5565b9050919050565b7f45524332303a206275726e2066726f6d20746865207a65726f2061646472657360008201527f7300000000000000000000000000000000000000000000000000000000000000602082015250565b6000613f94602183612e3a565b9150613f9f82613f38565b604082019050919050565b60006020820190508181036000830152613fc381613f87565b9050919050565b7f45524332303a206275726e20616d6f756e7420657863656564732062616c616e60008201527f6365000000000000000000000000000000000000000000000000000000000000602082015250565b6000614026602283612e3a565b915061403182613fca565b604082019050919050565b6000602082019050818103600083015261405581614019565b9050919050565b7f426f6f7463616d70206861736e27742073746172746564000000000000000000600082015250565b6000614092601783612e3a565b915061409d8261405c565b602082019050919050565b600060208201905081810360008301526140c181614085565b9050919050565b7f4e487b7100000000000000000000000000000000000000000000000000000000600052601260045260246000fd5b600061410282612cd0565b915061410d83612cd0565b92508261411d5761411c6140c8565b5b828204905092915050565b7f496e697469616c697a61626c653a20636f6e7472616374206973206e6f74206960008201527f6e697469616c697a696e67000000000000000000000000000000000000000000602082015250565b6000614184602b83612e3a565b915061418f82614128565b604082019050919050565b600060208201905081810360008301526141b381614177565b9050919050565b7f45524332303a206d696e7420746f20746865207a65726f206164647265737300600082015250565b60006141f0601f83612e3a565b91506141fb826141ba565b602082019050919050565b6000602082019050818103600083015261421f816141e3565b9050919050565b600060408201905061423b6000830185612fb5565b6142486020830184612d46565b9392505050565b60006060820190506142646000830186612fb5565b6142716020830185612fb5565b61427e6040830184612d46565b949350505050565b7f4e487b7100000000000000000000000000000000000000000000000000000000600052604160045260246000fd5b60008190508160005260206000209050919050565b60006020601f8301049050919050565b600082821b905092915050565b6000600883026143177fffffffffffffffffffffffffffffffffffffffffffffffffffffffffffffffff826142da565b61432186836142da565b95508019841693508086168417925050509392505050565b600061435461434f61434a84612cd0565b613784565b612cd0565b9050919050565b6000819050919050565b61436e83614339565b61438261437a8261435b565b8484546142e7565b825550505050565b600090565b61439761438a565b6143a2818484614365565b505050565b5b818110156143c6576143bb60008261438f565b6001810190506143a8565b5050565b601f82111561440b576143dc816142b5565b6143e5846142ca565b810160208510156143f4578190505b614408614400856142ca565b8301826143a7565b50505b505050565b600082821c905092915050565b600061442e60001984600802614410565b1980831691505092915050565b6000614447838361441d565b9150826002028217905092915050565b61446082612e2f565b67ffffffffffffffff81111561447957614478614286565b5b6144838254613376565b61448e8282856143ca565b600060209050601f8311600181146144c157600084156144af578287015190505b6144b9858261443b565b865550614521565b601f1984166144cf866142b5565b60005b828110156144f7578489015182556001820191506020850194506020810190506144d2565b868310156145145784890151614510601f89168261441d565b8355505b6001600288020188555050505b505050505050565b61453281612f7f565b811461453d57600080fd5b50565b60008151905061454f81614529565b92915050565b60006020828403121561456b5761456a612cc6565b5b600061457984828501614540565b91505092915050565b7f5361666545524332303a204552433230206f7065726174696f6e20646964206e60008201527f6f74207375636365656400000000000000000000000000000000000000000000602082015250565b60006145de602a83612e3a565b91506145e982614582565b604082019050919050565b6000602082019050818103600083015261460d816145d1565b9050919050565b7f416464726573733a20696e73756666696369656e742062616c616e636520666f60008201527f722063616c6c0000000000000000000000000000000000000000000000000000602082015250565b6000614670602683612e3a565b915061467b82614614565b604082019050919050565b6000602082019050818103600083015261469f81614663565b9050919050565b600081519050919050565b600081905092915050565b60006146c7826146a6565b6146d181856146b1565b93506146e1818560208601612e4b565b80840191505092915050565b60006146f982846146bc565b915081905092915050565b7f416464726573733a2063616c6c20746f206e6f6e2d636f6e7472616374000000600082015250565b600061473a601d83612e3a565b915061474582614704565b602082019050919050565b600060208201905081810360008301526147698161472d565b905091905056fea2646970667358221220d8487941a42620a18f7a9712720105dd1a0f7a7eda0985364100e15894bfc9c764736f6c63430008110033",
  "linkReferences": {},
  "deployedLinkReferences": {}
}