{
  "_format": "hh-sol-artifact-1",
  "contractName": "FirstDapp",
  "sourceName": "contracts/MarketSentiment.sol",
  "abi": [
    {
      "anonymous": false,
      "inputs": [
        {
          "indexed": true,
          "internalType": "address",
          "name": "previousOwner",
          "type": "address"
        },
        {
          "indexed": true,
          "internalType": "address",
          "name": "newOwner",
          "type": "address"
        }
      ],
      "name": "OwnershipTransferred",
      "type": "event"
    },
    {
      "anonymous": false,
      "inputs": [
        {
          "indexed": false,
          "internalType": "string",
          "name": "str",
          "type": "string"
        }
      ],
      "name": "tokenCreated",
      "type": "event"
    },
    {
      "inputs": [
        {
          "internalType": "string",
          "name": "_str",
          "type": "string"
        }
      ],
      "name": "createTicket",
      "outputs": [],
      "stateMutability": "nonpayable",
      "type": "function"
    },
    {
      "inputs": [
        {
          "internalType": "string",
          "name": "_str",
          "type": "string"
        }
      ],
      "name": "getNegativeVotes",
      "outputs": [
        {
          "internalType": "uint256",
          "name": "",
          "type": "uint256"
        }
      ],
      "stateMutability": "view",
      "type": "function"
    },
    {
      "inputs": [
        {
          "internalType": "string",
          "name": "_str",
          "type": "string"
        }
      ],
      "name": "getPositiveVotes",
      "outputs": [
        {
          "internalType": "uint256",
          "name": "",
          "type": "uint256"
        }
      ],
      "stateMutability": "view",
      "type": "function"
    },
    {
      "inputs": [],
      "name": "getTickets",
      "outputs": [
        {
          "internalType": "string[]",
          "name": "",
          "type": "string[]"
        }
      ],
      "stateMutability": "view",
      "type": "function"
    },
    {
      "inputs": [],
      "name": "owner",
      "outputs": [
        {
          "internalType": "address",
          "name": "",
          "type": "address"
        }
      ],
      "stateMutability": "view",
      "type": "function"
    },
    {
      "inputs": [],
      "name": "renounceOwnership",
      "outputs": [],
      "stateMutability": "nonpayable",
      "type": "function"
    },
    {
      "inputs": [
        {
          "internalType": "string",
          "name": "",
          "type": "string"
        }
      ],
      "name": "tokenExist",
      "outputs": [
        {
          "internalType": "bool",
          "name": "",
          "type": "bool"
        }
      ],
      "stateMutability": "view",
      "type": "function"
    },
    {
      "inputs": [
        {
          "internalType": "address",
          "name": "newOwner",
          "type": "address"
        }
      ],
      "name": "transferOwnership",
      "outputs": [],
      "stateMutability": "nonpayable",
      "type": "function"
    },
    {
      "inputs": [
        {
          "internalType": "string",
          "name": "_str",
          "type": "string"
        }
      ],
      "name": "voteNegative",
      "outputs": [],
      "stateMutability": "nonpayable",
      "type": "function"
    },
    {
      "inputs": [
        {
          "internalType": "string",
          "name": "_str",
          "type": "string"
        }
      ],
      "name": "votePositive",
      "outputs": [],
      "stateMutability": "nonpayable",
      "type": "function"
    }
  ],
  "bytecode": "0x608060405234801561001057600080fd5b5061002d61002261003260201b60201c565b61003a60201b60201c565b6100fe565b600033905090565b60008060009054906101000a900473ffffffffffffffffffffffffffffffffffffffff169050816000806101000a81548173ffffffffffffffffffffffffffffffffffffffff021916908373ffffffffffffffffffffffffffffffffffffffff1602179055508173ffffffffffffffffffffffffffffffffffffffff168173ffffffffffffffffffffffffffffffffffffffff167f8be0079c531659141344cd1fd0a4f28419497f9722a3daafe3b4186f6b6457e060405160405180910390a35050565b6111ed8061010d6000396000f3fe608060405234801561001057600080fd5b506004361061009e5760003560e01c8063715018a611610066578063715018a6146101595780638da5cb5b14610163578063a8ba88a714610181578063f017d4e91461019d578063f2fde38b146101cd5761009e565b8063023524e4146100a35780631646983a146100d35780633525077a146101035780634ed026221461011f5780636897082f1461013d575b600080fd5b6100bd60048036038101906100b89190610ac0565b6101e9565b6040516100ca9190610dff565b60405180910390f35b6100ed60048036038101906100e89190610ac0565b610214565b6040516100fa9190610d42565b60405180910390f35b61011d60048036038101906101189190610ac0565b61024a565b005b6101276103a7565b6040516101349190610d20565b60405180910390f35b61015760048036038101906101529190610ac0565b610480565b005b6101616105d8565b005b61016b6105ec565b6040516101789190610d05565b60405180910390f35b61019b60048036038101906101969190610ac0565b610615565b005b6101b760048036038101906101b29190610ac0565b610772565b6040516101c49190610dff565b60405180910390f35b6101e760048036038101906101e29190610a93565b61079d565b005b60006001826040516101fb9190610cee565b9081526020016040518091039020600201549050919050565b6002818051602081018201805184825260208301602085012081835280955050505050506000915054906101000a900460ff1681565b60018160405161025a9190610cee565b908152602001604051809103902060030160003373ffffffffffffffffffffffffffffffffffffffff1673ffffffffffffffffffffffffffffffffffffffff16815260200190815260200160002060009054906101000a900460ff16156102f6576040517f08c379a00000000000000000000000000000000000000000000000000000000081526004016102ed90610ddf565b60405180910390fd5b600180826040516103079190610cee565b908152602001604051809103902060010160008282546103279190610ee1565b925050819055506001808260405161033f9190610cee565b908152602001604051809103902060030160003373ffffffffffffffffffffffffffffffffffffffff1673ffffffffffffffffffffffffffffffffffffffff16815260200190815260200160002060006101000a81548160ff02191690831515021790555050565b60606003805480602002602001604051908101604052809291908181526020016000905b828210156104775783829060005260206000200180546103ea90610fc1565b80601f016020809104026020016040519081016040528092919081815260200182805461041690610fc1565b80156104635780601f1061043857610100808354040283529160200191610463565b820191906000526020600020905b81548152906001019060200180831161044657829003601f168201915b5050505050815260200190600101906103cb565b50505050905090565b610488610821565b6002816040516104989190610cee565b908152602001604051809103902060009054906101000a900460ff16156104f4576040517f08c379a00000000000000000000000000000000000000000000000000000000081526004016104eb90610d9f565b60405180910390fd5b60016002826040516105069190610cee565b908152602001604051809103902060006101000a81548160ff021916908315150217905550600060018260405161053d9190610cee565b90815260200160405180910390209050600081600101819055506000816002018190555060038290806001815401808255809150506001900390600052602060002001600090919091909150908051906020019061059c92919061096b565b507f4c079c41255c4abf9643e4ea238665321f8787721f602f81c119676fbfcb3824826040516105cc9190610d5d565b60405180910390a15050565b6105e0610821565b6105ea600061089f565b565b60008060009054906101000a900473ffffffffffffffffffffffffffffffffffffffff16905090565b6001816040516106259190610cee565b908152602001604051809103902060030160003373ffffffffffffffffffffffffffffffffffffffff1673ffffffffffffffffffffffffffffffffffffffff16815260200190815260200160002060009054906101000a900460ff16156106c1576040517f08c379a00000000000000000000000000000000000000000000000000000000081526004016106b890610ddf565b60405180910390fd5b600180826040516106d29190610cee565b908152602001604051809103902060020160008282546106f29190610ee1565b925050819055506001808260405161070a9190610cee565b908152602001604051809103902060030160003373ffffffffffffffffffffffffffffffffffffffff1673ffffffffffffffffffffffffffffffffffffffff16815260200190815260200160002060006101000a81548160ff02191690831515021790555050565b60006001826040516107849190610cee565b9081526020016040518091039020600101549050919050565b6107a5610821565b600073ffffffffffffffffffffffffffffffffffffffff168173ffffffffffffffffffffffffffffffffffffffff161415610815576040517f08c379a000000000000000000000000000000000000000000000000000000000815260040161080c90610d7f565b60405180910390fd5b61081e8161089f565b50565b610829610963565b73ffffffffffffffffffffffffffffffffffffffff166108476105ec565b73ffffffffffffffffffffffffffffffffffffffff161461089d576040517f08c379a000000000000000000000000000000000000000000000000000000000815260040161089490610dbf565b60405180910390fd5b565b60008060009054906101000a900473ffffffffffffffffffffffffffffffffffffffff169050816000806101000a81548173ffffffffffffffffffffffffffffffffffffffff021916908373ffffffffffffffffffffffffffffffffffffffff1602179055508173ffffffffffffffffffffffffffffffffffffffff168173ffffffffffffffffffffffffffffffffffffffff167f8be0079c531659141344cd1fd0a4f28419497f9722a3daafe3b4186f6b6457e060405160405180910390a35050565b600033905090565b82805461097790610fc1565b90600052602060002090601f01602090048101928261099957600085556109e0565b82601f106109b257805160ff19168380011785556109e0565b828001600101855582156109e0579182015b828111156109df5782518255916020019190600101906109c4565b5b5090506109ed91906109f1565b5090565b5b80821115610a0a5760008160009055506001016109f2565b5090565b6000610a21610a1c84610e3f565b610e1a565b905082815260208101848484011115610a3d57610a3c6110b6565b5b610a48848285610f7f565b509392505050565b600081359050610a5f816111a0565b92915050565b600082601f830112610a7a57610a796110b1565b5b8135610a8a848260208601610a0e565b91505092915050565b600060208284031215610aa957610aa86110c0565b5b6000610ab784828501610a50565b91505092915050565b600060208284031215610ad657610ad56110c0565b5b600082013567ffffffffffffffff811115610af457610af36110bb565b5b610b0084828501610a65565b91505092915050565b6000610b158383610bb0565b905092915050565b610b2681610f37565b82525050565b6000610b3782610e80565b610b418185610ea3565b935083602082028501610b5385610e70565b8060005b85811015610b8f5784840389528151610b708582610b09565b9450610b7b83610e96565b925060208a01995050600181019050610b57565b50829750879550505050505092915050565b610baa81610f49565b82525050565b6000610bbb82610e8b565b610bc58185610eb4565b9350610bd5818560208601610f8e565b610bde816110c5565b840191505092915050565b6000610bf482610e8b565b610bfe8185610ec5565b9350610c0e818560208601610f8e565b610c17816110c5565b840191505092915050565b6000610c2d82610e8b565b610c378185610ed6565b9350610c47818560208601610f8e565b80840191505092915050565b6000610c60602683610ec5565b9150610c6b826110d6565b604082019050919050565b6000610c83601483610ec5565b9150610c8e82611125565b602082019050919050565b6000610ca6602083610ec5565b9150610cb18261114e565b602082019050919050565b6000610cc9601e83610ec5565b9150610cd482611177565b602082019050919050565b610ce881610f75565b82525050565b6000610cfa8284610c22565b915081905092915050565b6000602082019050610d1a6000830184610b1d565b92915050565b60006020820190508181036000830152610d3a8184610b2c565b905092915050565b6000602082019050610d576000830184610ba1565b92915050565b60006020820190508181036000830152610d778184610be9565b905092915050565b60006020820190508181036000830152610d9881610c53565b9050919050565b60006020820190508181036000830152610db881610c76565b9050919050565b60006020820190508181036000830152610dd881610c99565b9050919050565b60006020820190508181036000830152610df881610cbc565b9050919050565b6000602082019050610e146000830184610cdf565b92915050565b6000610e24610e35565b9050610e308282610ff3565b919050565b6000604051905090565b600067ffffffffffffffff821115610e5a57610e59611082565b5b610e63826110c5565b9050602081019050919050565b6000819050602082019050919050565b600081519050919050565b600081519050919050565b6000602082019050919050565b600082825260208201905092915050565b600082825260208201905092915050565b600082825260208201905092915050565b600081905092915050565b6000610eec82610f75565b9150610ef783610f75565b9250827fffffffffffffffffffffffffffffffffffffffffffffffffffffffffffffffff03821115610f2c57610f2b611024565b5b828201905092915050565b6000610f4282610f55565b9050919050565b60008115159050919050565b600073ffffffffffffffffffffffffffffffffffffffff82169050919050565b6000819050919050565b82818337600083830152505050565b60005b83811015610fac578082015181840152602081019050610f91565b83811115610fbb576000848401525b50505050565b60006002820490506001821680610fd957607f821691505b60208210811415610fed57610fec611053565b5b50919050565b610ffc826110c5565b810181811067ffffffffffffffff8211171561101b5761101a611082565b5b80604052505050565b7f4e487b7100000000000000000000000000000000000000000000000000000000600052601160045260246000fd5b7f4e487b7100000000000000000000000000000000000000000000000000000000600052602260045260246000fd5b7f4e487b7100000000000000000000000000000000000000000000000000000000600052604160045260246000fd5b600080fd5b600080fd5b600080fd5b600080fd5b6000601f19601f8301169050919050565b7f4f776e61626c653a206e6577206f776e657220697320746865207a65726f206160008201527f6464726573730000000000000000000000000000000000000000000000000000602082015250565b7f5469636b657420616c7265616479206578697374000000000000000000000000600082015250565b7f4f776e61626c653a2063616c6c6572206973206e6f7420746865206f776e6572600082015250565b7f5468697320616464726573732068617320616c726561647920766f7465640000600082015250565b6111a981610f37565b81146111b457600080fd5b5056fea2646970667358221220487b2f6691496236dd873ae2fae16527291a94b312692ced6ae5b998a0a637fa64736f6c63430008070033",
  "linkReferences": {},
  "deployedLinkReferences": {}
}